:0840000008990202010203010C
:0240200021F18C
:01406000223D
:0640800022000007600DA4
:1041F1007581D0C2AF75FFDE75FFAD53F8F37584DD
:104201000F75E11C75E20075E34C75A47075ADFF87
:1042110075A5FF75901B75A67D75A0BF75A7FF7568
:10422100B083759CFF75C8FF759D0075D8FF759E9D
:10423100FF75E847759F8175F87E75840075A32029
:104241007543FD129DA47544AF12D9A075450F1297
:10425100D9AA75461312D9B475472912D9C475481C
:10426100F012D9CE75490612D9D875D10375D4800B
:1042710075D20075D30075840175D4007584001260
:10428100DAD4754A2112D9E2754B0012D9F27401C0
:1042910090005AF075840F758C6712DAD4E58C3072
:1042A100E7FB759701758A0075890475840075B7F8
:1042B1003075840F438901758D01758F01758E05E8
:1042C10012DB09758907E58930E4FB75970275846E
:1042D100001250C25348FD12D9CE5349EF12D9D81A
:1042E10053497F12D9D85349BF12D9D8434508122F
:1042F100D9AA43472012D9C475840F759CFF7584D0
:1043010000753200753380124FE6753200753380C7
:1043110012502375320075338012501775320075B3
:10432100338012501175320075330012501D534401
:10433100BF43448012D9A05348FE12D9CE7536002E
:1043410075370012CF8875DC00C200C201C202C2FB
:1043510003C204C205C207C208C209C20AC20BC213
:104361000CC20EC210C211C212C213C214C215C2B3
:1043710018C219C21FC220C2217550009000AC742E
:1043810000F0A3F090000A74FFF075985075910A3F
:1043910075840175C80075C90875CABB75CCBB7534
:0543A100CBFE75CDFE0E
:1043A600D2CAC21E7584017598507584007589221B
:1043B600438E09758D94D28E75C80075840275C8B2
:1043C6000075C90875CA3875CC3875CBFF75CDFF31
:1043D60075500012AD5880007584007581D0C29862
:1043E6003098FD71ED80F1C2AFC2ACD29953E7BFF0
:1043F600758401C298D29975840012DA29B45505DC
:1044060012DA218048745512DA2112DAC820983D52
:10441600201E1D12DB5ED21E12DAD47E02D2994312
:104426009802745512DA2112DAC8209820DEEE229C
:1044360012DB3DC21E12DAC87E02D299439802747C
:104446005512DA2112DAC8209803DEEE2212DA2992
:10445600406DB4F8B074AA12DA2112DA294060F578
:104466003012DA29405912DA294054F53112DA2984
:10447600404D7C00E53025E0FD50010C9044E5E51B
:10448600822DF582E5833CF583E493FEA3E4938EC7
:1044960083F582AF31BF00028023E493F9A3E4934E
:1044A600F8A312DA294018AA82AB8388828983F09E
:1044B600A312DA294009F08A828B83DFDD91C8C214
:1044C6000522904AB3E5822DF582E5833CF583E427
:1044D60093FEA3E4938E83F582C298C205E47346E5
:1044E60009460B460B460B460D460F461146174628
:1044F6001B4621462346254627470F4757470F4762
:104506000F470F47614761470F470F470F47AB47B5
:104516000F47B1470F470F470F470F470F47C5478D
:10452600C547C547C547C747C747CB47CB47CB470F
:10453600CB47CD47CD47CD47CF47CF47DD47DF47B1
:10454600DF47DF47DF470F470F47DF4801470F4782
:104556000F4813480148014815470F481D481D4894
:104566001D482148214849470F4849484948494874
:10457600B94903491549174949499549974A7B4914
:10458600A74629462949E349E5462949E749E9462F
:104596002949EB49EF49F949FB49FD49FF4A014AD7
:1045A600034A054A054A054A214A434A434A454AB7
:1045B6004F4A514A534A554A574A594A5B4A5B4AF7
:1045C6005B4A5F4A5F4A634A634A654A674A694A81
:1045D600694A6B4A6D4A734A734A754A754A794AFB
:1045E600054A794A794A7B4A874A7B4A994A9B4ACD
:1045F6009D4A9F4A9F4A9F4A9F4AAF4AAF4AB14A3D
:10460600B14AB10008000E00120016005000520018
:104616005400940092005E00600062006E009400F8
:1046260018008E00E000E200E400E600E800EA0080
:10463600EC00EE00F000F200F400F600F800FA00DC
:10464600FC00FE01000102010401060108010A0145
:104656000C010E01100112011401160118011A01B4
:104666001C011E01200122012401260128012A0124
:104676002C012E01300132013401360138013A0194
:104686003C013E01C401C601C801CA01CC01CE01EC
:10469600D001D201D401D601D801DA01DC01DE0154
:1046A600E001E201E401E601E801EA01EC01EE01C4
:1046B600F001F201F401F601F801FA01FC01FE0233
:1046C600000202020402060208020A020C020E029C
:1046D600100212021402160218021A021C021E020C
:1046E600200222022402260228022A022C022E027C
:1046F600300232023402360238023A023C023E02EC
:104706004002420244024600D2000E00120014008B
:0D471600740076015C015E0008005E00D8B2
:1047230000DA00DC00DE00B200B400820084008600
:10473300008A008C008E0090009600D00088007CD8
:10474300009A009C009E00A000A200A400A600A85E
:1047530000AA00D2000E0078008400860088000EB4
:10476300001200740076015C015E0008005E00E048
:1047730000E200E400E600E800EA00EC00EE00825C
:1047830000840086008A008C008E0090009600D082
:104793000088007C009A009C009E00A000A200A458
:1047A30000A600A800AA00D20084008600AC025232
:1047B30000D800DA00DC00DE008E00D00082009C0E
:1047C300009E007A001200D2000800C6000E015CB1
:1047D30000D800B200B4008E0090007E0252025452
:1047E30002560258025A025C025E0082008400D024
:1047F300008E009000D800DA00DC00DE0260008248
:10480300008400D0008E009000D800DA00DC00DEC7
:10481300001A000000020004000600AE00B0000E03
:10482300015C015E008A008C008E0090008400E031
:1048330000E200E400E600E800EA00EC00EE00F02D
:1048430000F200F400F6015C015E016001560158BC
:10485300015A008A008C007C00E000E200E400E6DC
:1048630000E800EA00EC00EE00F000F200F400F6CD
:1048730000F800FA00FC00FE010001020104010639
:104883000108010A010C010E017A017C017E0180FD
:104893000182018401860188018A018C018E0190C5
:1048A3000096009A009C009E00A000A200A400A60F
:1048B30000A800AA00D2015C015E016000740076CA
:1048C300008A008C007C00E000E200E400E600E8DF
:1048D30000EA00EC00EE00F000F200F400F600F84D
:1048E30000FA00FC00FE008E00900096009A009CE7
:1048F300009E00A000A200A400A600A800AA00D267
:10490300015C015E008C008E009000D800DA00DCB0
:1049130000DE00C0008A008C015C015E00E000E262
:1049230000E400E600E800EA00EC00EE00F000F22C
:1049330000F400F60144008E00360048004A004CA3
:10494300004E004600D2008A008C015C015E00E04C
:1049530000E200E400E600E800EA00EC00EE00F00C
:1049630000F200F400F6008200240148007400768F
:10497300014001420096009C0144008E00D800DAF9
:1049830000DC00DE00360048004A004C004E0046C2
:1049930000D2008A0082014800240074007601429C
:1049A300009C00D2015C015E01560158008A00E0C0
:1049B30000E200E400E600E800EA00EC00EE00821A
:1049C3000024014800740076014001420096009CD7
:1049D300009E014400360048004A004C004E004649
:1049E300025C001C00C800CA008E00360248024A5E
:1049F300024C024E025000B600BA00BC00B800BE22
:104A0300008E0252025402560258025A025C025E9F
:104A130000820260026402660268008A00D00252C9
:104A2300025402560258025A025C025E0082008A55
:104A330000D000D800DA00DC00DE008E00900260B7
:104A4300005C000E00D800DA00DC00DE001E00204F
:104A530000220024026A0098008A0082026C026E1F
:104A6300005000520054006A000C006400660068A5
:104A7300006C00560058008200360048004A004C83
:104A8300004E004600360038003A003C003E00402D
:0D4A93000042004400460036008200820010
:104AA000260028002A002C002E003000320034009E
:104AB000CC00CE51E251EA51EE51F251F952065278
:104AC00013521D52F4530A531E53FF540C55D17602
:104AD000B0779D779D7FCA82B582F784AE85B58613
:104AE000F88B908C278FD98FD9945395DB9D879520
:104AF000789DB39DB99DBF9DCB9DD79DF49E099E8A
:104B0000149E239E329E499E599E5A9E6E9E6EA072
:104B10008DA0A1A0B0A0C0A0C7A0DFA262A3A2A543
:104B2000C1A951AB2BACF5AD03AD04AD05AD09ADDD
:104B300009AD3BAE42AE71AF76B01E9BF9B02BB162
:104B4000FCB360B7ADB8A5B95CB9DEBAC3B9C3BC34
:104B5000CBBD11BD59BE71C867CC71CC7EB4B5CC8C
:104B600089CC9ECA39CCB3CD7CCE51CE5FCE6DCE32
:104B70007BCE8ACD3BA242CE98D056D29FD3DBD3F8
:104B8000F88237828A829882A682B4D40DD45DDA04
:104B90001DD4B9D4BCD54FD54FD6CAD6CBD6CFD6D7
:104BA000D3D6D7D6D8D6E0D6F4D746D746D766D709
:104BB00066D76DCE9BD76DD76ED7EBD80ED80ED8F3
:104BC00048D86ED881D8E5D8E8D8E8D8F2D8FCD84B
:104BD000FCD914D914D91522C007FF201205910061
:104BE000D00722C0077F03910012DADA740212ADF7
:104BF000F2D007EF12ADF212DAD412DAD4D00722D3
:104C0000C083C08290000AE0C39FC0E0EFF0D0E014
:104C1000D082D08370012220100B75840FD2F875DA
:104C2000840012DADAEFB40A0D53460F43469012AD
:104C3000D9B412DADA22B40B1553460F4346901258
:104C4000D9B412DABC75840FC2F875840022B40C92
:104C50000A4346F012D9B412DADA22B400155346E8
:104C60000F43468012D9B412DABC75840FC2F875AE
:104C7000840022B4011530100875840FD2F87584B1
:104C8000004346F012D9B412DADA22C39402232385
:104C9000232353460F424612D9B412DABC75840F4F
:104CA000C2F875840022600743491012D9D82253F4
:104CB00049EF12D9D822600743498012D9D822532C
:104CC000497F12D9D822600743494012D9D82253CC
:104CD00049BF12D9D822C007FF540F71D8EF541022
:104CE00091A6EF542091B6EF544091C6D00722B15F
:104CF00003B11E12DABC12DABCB13F12DABCB151F8
:104D0000B12C2220120A20130D43460112D9B422DD
:104D1000740412ADF222740312ADF2B10922534BA6
:104D20007F12D9F222434B8012D9F222B1322012E3
:104D300008225347FB12D9C422740612ADF2222076
:024D4000120956
:104D420075840FC2ED75840022740A12ADF222201E
:104D5200120753457F12D9AA22740812ADF222B16A
:104D62009712DABCB1A912DABC12DABCB1712253C1
:104D720046FE12D9B420120420130722740312AD86
:104D8200F2222220120743470412D9C422740512C8
:104D9200ADF2B1322275840FD2ED7584002012017A
:104DA20022740912ADF22243458012D9AA201201BF
:104DB20022740712ADF222900050E070075349FBB3
:104DC20012D9D822C0E043490412D9D8D0E0B401A4
:104DD200105348FB5348F712D9CE43470112D9C4A6
:104DE20022B402104348045348F712D9CE43470174
:104DF20012D9C422B403105348FB43480812D9CE37
:104E020043470112D9C422B404104348044348085A
:104E120012D9CE43470112D9C422B405105348FB1C
:104E22005348F712D9CE5347FE12D9C422B4061002
:104E32004348045348F712D9CE5347FE12D9C4222D
:104E4200B407105348FB43480812D9CE5347FE1209
:104E5200D9C42243480443480812D9CE5347FE120C
:104E6200D9C42220120E900052E0235346F142464A
:104E720012D9B422741312ADF2900052E012ADF2C4
:104E820022900054E0700743490812D9D822C0E0AA
:104E92005349F712D9D8D0E0B401105347BF534752
:0E4EA2007F12D9C45349FE12D9D822B402108F
:104EB00043474053477F12D9C45349FE12D9D822E1
:104EC000B403105347BF43478012D9C45349FE125D
:104ED000D9D822B4041043474043478012D9C45361
:104EE00049FE12D9D822B405105347BF53477F1249
:104EF000D9C443490112D9D822B4061043474053BC
:104F0000477F12D9C443490112D9D822B40710539C
:104F100047BF43478012D9C443490112D9D822431D
:104F2000474043478012D9C443490112D9D822903F
:104F30000056E023534AF1424A12D9E22290005827
:104F4000E0700122B4010D534BFE534BFD534BF760
:104F500012D9F222B4020D434B01534BFD534BF7D0
:104F600012D9F222B4030D534BFE434B02534BF7BD
:104F700012D9F222B4040D434B01434B02534BF7B9
:104F800012D9F222B4050D534BFE534BFD434B088F
:104F900012D9F222B4060D434B01534BFD434B088B
:104FA00012D9F222B4070D534BFE434B02434B0878
:104FB00012D9F222434B01434B02434B0812D9F260
:104FC0002275840FE0F5C800D29500C295A3E0F5E4
:104FD000C800D29600C296758400C29300D293D2C4
:104FE000A20000C2A22275840F8532C800D29500AB
:104FF000C2958533C800D29600C296758400C293CC
:1050000000D293D2A20000C2A222E0F532A3E0F5C2
:10501000337534C0112922753400112922753440AA
:10502000112922753480112922C007C2A500000071
:1050300000C2B17F02E53433F534C2A4000050044D
:0C504000D2A40000D2A500C2A500DFE948
:10504C007F08E53333F533C2A400005004D2A4002A
:10505C0000D2A500C2A500DFE97F08E53233F532A6
:10506C00C2A400005004D2A40000D2A500C2A50026
:10507C00DFE9D2B1C2B00000D2B0D0072230110F9C
:10508C00740412AE7EE53212AE7EE53312AE7E2291
:10509C0030110F740512AE7EE53212AE7EE533127E
:1050AC00AE7E2230110F740612AE7EE53212AE7E49
:1050BC00E53312AE7E2243440112D9A043440412BC
:1050CC00D9A05344EF12D9A043450212D9AAC292D7
:1050DC000000000000C291C2902275840F759CFFE5
:1050EC0075840043441012D9A0C294740075840FC7
:1050FC00F5C8758400D29500C295740075840FF5BF
:10510C00C8758400D29600C296C29300D2935344C1
:10511C00FE12D9A05344FB12D9A0D2A20000C2A205
:10512C002275840F759C0075C8FF759D0075D8FF9E
:10513C0075840043442012D9A0C2B7C2A0D29053A8
:10514C0044F712D9A043440812D9A02275840F75D4
:10515C009C0075C8FF759D0075D8FF75840043448D
:10516C002012D9A0C2B7C2A05344F712D9A043440D
:10517C000812D9A02275840F759C0075C8FF759D07
:10518C000075D8FF758400D2A05344F712D9A04300
:10519C00440812D9A02275840F759C0075C8FF7540
:1051AC009D0075D8FF758400D2A022E53612DA2155
:1051BC00E53712DA2122E53612DA21E53712DA2147
:1051CC00E53812DA212231C2E53912DA212231D244
:1051DC00E53A12DA2122900008E0124BD822124C48
:1051EC00EF22124D612290000E124FC1229000123C
:1051FC00E0F532A3E0F533111122900016E0F53200
:10520C00A3E0F533112322124DB9124E65124E83D1
:10521C0022711E12DB0930160312DABC201513C0E2
:0D522C0006C00790009212EC68516331D269
:10523900D007D00622C006C00790009212EC685130
:1052490063D2B65345CF12D9AA31D290009212EC4B
:1052590068516331D2D007D0062253443F12D9A0F6
:1052690075840F759C0075C8FF759D0075D8FF750D
:105279008400C2A07536007537007538007539008D
:10528900D29100000000000000C29175840275CA25
:105299003875CC3875CBFF75CDFFD2CAC2CF7584AE
:1052A9000230CFFDC2CF75840FE5D82536F536E536
:1052B900C8D29100000000000000C2913537F537CF
:1052C90050080538E53870020539DFD2DED075841B
:1052D90002C2CA758400D2A075840F759CFF7584BB
:1052E900005344BF43448012D9A02290005EE012CB
:1052F9004CA6900060E0124CB6900062E0124CC6D9
:105309002290006EE0600743450412D9AA22534552
:10531900FB12D9AA22900094E0B41403C21622C247
:1053290015C216900094E0B4001DE54554087008B4
:10533900D21643450812D9AAE54754207008D21657
:1053490043472012D9C422B4091DE5455408700801
:10535900D21643450812D9AAE54754206008D21647
:105369005347DF12D9C422C0E0E54554086008D28A
:10537900165345F712D9AAD0E0B40109C2B653456C
:10538900CF12D9AA22B40209D2B65345CF12D9AA4B
:1053990022B4030CC2B64345205345EF12D9AA22C1
:1053A900B4040CD2B64345205345EF12D9AA22B40E
:1053B900050CC2B65345DF43451012D9AA22B406DB
:1053C9000CD2B65345DF43451012D9AA22B4070CB3
:1053D900C2B643452043451012D9AA22B4080CD2BB
:0B53E900B643452043451012D9AA220C
:1053F400C2B65345CF12D9AAD21522900018E0F5AF
:1054040032A3E0F5331117229000507401F0124DCD
:10541400B9900008E0124BD87400124CA674001224
:105424004CB67400124CC612A0B0124D9712DABCDE
:10543400124DA990000EE0F532A3E02420F53312BA
:105444004FE612DABC90000E124FC112DABC900083
:105454008E12EC68516331D2124D3F124D5112A09D
:10546400A190005EE0124CA6900060E0124CB69051
:105474000062E0124CC622C2AFC2ADC2CAC2CF9013
:1054840000DAE0B4000543C9088006B4011453C926
:10549400F79000D8E0F5CAF5CCA3E0F5CBF5CDD272
:1054A400CA22B4020543C908800353C9F79000DC3B
:1054B400E0F53DA3E0F53EA3E0F53FE53D600805DA
:1054C4003EE53E7002053FE53E6002053F853D40F6
:1054D400853E41853F429000D8E0F5CAF5CCA3E073
:1054E400F5CBF5CDD2AFD2ADC206D2CA22C2CAC262
:1054F400CF43C9089000D8E0F5CAF5CCA3E0F5CBBA
:10550400F5CDD2CA229000DAE06003B40108B13BC1
:1055140030CFFDC2CF22B13B300501223006F7C2A5
:1055240006229000DAE06003B4010630CFFDC2CF5A
:015534002254
:105535003006FDC2062230981EC298E599B41B03B9
:10554500D20522B41303B15D22B41205B218D219E3
:1055550022B40203D21A22223098FDC298E599B4EA
:105565001B03D20522B4110122B41205B218D219B7
:1055750022B400E4B17D80E012705331B722C0043B
:10558500C005850705850604ED60011CC3900086EE
:10559500E09DFFA3E09CFEEF60010EB294C219D01E
:1055A50005D00412DAA92290009AE0B40219758494
:1055B5000F30FB137584003098F4E599C298B41B3D
:1055C5000302ECECB411E77584002222B1AC53441C
:1055D5003F12D9A090000EE075840FF5C8758400C0
:1055E500D29500C295A3E075840FF5C8758400D2E5
:1055F5009600C296C29300D2935344F712D9A043A2
:10560500440812D9A0C2199000D012ECB212EC5B7A
:105615008F538E5412EC518F518E5290008AE0C3F5
:10562500941050199000AAE06013D2235345F71245
:10563500D9AAD2B65345CF12D9AA12DABC90008A9C
:10564500E0C3944C502D90008AE0C3943C402490D4
:105655000016E0F567A3E0F568756500756600F16D
:105665000DD218900088E07002C21890009EE0F5F7
:1056750055801490008CE0F555AB55900088E0609E
:0E56850004D2948002C29490008AE0B4000324
:10569300025919B40103025A36B40203025B61B41E
:1056A3000303025C8FB40403025D56B40503025E78
:1056B30081B40E03025FBAB47C03026107B48603AC
:1056C3000262AAB42803026476B42903026557B4BC
:1056D3002A0302670AB42C0302688DB42D03026AFD
:1056E30005B43603026B99B43C02E174B43D02E1A4
:1056F300EFB43E03025862B440030258C2B44103FC
:105703000258C2B44A0302591822900074E0F569A2
:10571300A3E0F56A900076E0F56BA3E0F56C22E573
:10572300652569F565E566356AF566E567356BF503
:1057330067E568356CF56885673285683322F12241
:10574300112322C3E5659569F565E566956AF566F6
:10575300E567956BF567E568956CF5688567328550
:10576300683322F146112322301803F14122F166F6
:10577300225345F712D9AAC2B65345CF12D9AA125A
:10578300DABCD29100000000000000C29120A1FD0C
:10579300312D917BAB55B109F16BDBFAD29100004E
:1057A3000000000000C29120A1FDD2B612DB12D28C
:1057B3009100000000000000C29120A1FDC2B612BA
:1057C300DB12DFD0DECEB21812EC5BDDC7DCC52006
:1057D300A1FDD290000000000000C290E5507003CC
:1057E30012ECE212EC7212EB5E02ECEC5345F71290
:1057F300D9AAC2B65345CF12D9AA12DABCD29100A4
:10580300000000000000C29120A1FD125158125463
:105813007BAB5512550912576BDBF8126FDB12EA9B
:10582300CFD2B612DB12126FDB12EACFC2B612DB93
:0358330012DFDEA3
:10583600DEDCB21812EC5BDDD5DCD3126FDB12EACC
:10584600CFD2B612DB12126FDB12EACFE55070032D
:1058560012ECE212EC7212EBD902ECEC5345F712A1
:10586600D9AAC2B65345CF12D9AA12DABC90009073
:10587600E0F55712547B12553B30050302ECECABB6
:105886005512550912576BDBF8E5571270CBD2B695
:10589600E53612DA21E53712DA21E5571270CBC266
:1058A600B6E53612DA21E53712DA21301903125538
:1058B60083DFC3DEC1B21812EC5B80BA5345F71220
:1058C600D9AAC2B65345CF12D9AA12DABC90008A19
:1058D600E0C3943CF012547B12553B30050302ECB6
:1058E600ECAB5512550912576BDBF812E70012DBC9
:1058F6007FD2B612DB1212E70012DB7FC2B612DBD2
:1059060012301903125583DFCFDECDB21812EC5BCD
:1059160080C62290009CE0607275D90875D8007523
:10592600DA46F5FC75DB4690009EE0F5FE43444002
:1059360053447F12D9A0D29100000000000000C29B
:105946009120A1FDD29100000000000000C291202C
:10595600A1FD12512D1250C2D292D291D290125460
:105966007BD2DE30CFFDC2CFDFF9DEF7B294AF5384
:10597600AE54DDEFDCEDC2DE75DA0075DB00C292F7
:105986000000000000C291C29041191250E690003A
:1059960084E075840FF5C8758400D29500C295A37E
:1059A600E075840FF5C8758400D29600C296D21DA4
:1059B60012512D43444053447F12D9A0D291000086
:1059C6000000000000C29120A1FDD291000000005D
:1059D600000000C29120A1FD1254F130CFFDC29209
:0E59E600000000C2CFD292DB09D29100000077
:1059F400AB55C291DFE7DEE5301D10C21DC293AF87
:105A040053AE54D293DDD6DCD4800AD21DAF53AE4C
:105A140054DDCADCC820A1FDD290000000000000C3
:105A2400C290E550700312ECE212EC6512EB5E02D8
:105A3400ECEC12547BD29100000000000000C291F3
:105A440020A1FD900090E0F5576002805312512D83
:105A54005344F712D9A043440812D9A0AB5530CF10
:105A6400FDC292000000C2CFD292DB09D2910000A5
:105A740000AB55C291DFE7DEE5AF53AE54B294DD1F
:105A8400DDDCDB20A1FDD290000000000000C2900C
:105A9400E550700312ECE212EC6512EB5E02ECECE2
:105AA4001251585344F712D9A043440812D9A09074
:105AB400008EE0F556FA30980AC298E599B41B03B3
:105AC40002ECEC753800753900753A007B08E55531
:105AD400B405027B0430CFFDC2CFE5571270CBD2A0
:105AE4009200000000000000C292DBE930CFFDC24A
:105AF400CF7B03E555B405027B02E53A13F53AE59D
:105B04003913F539E53813F538DBEFD2920000008C
:105B140000000000C292E555B40A0530CFFDC2CFA3
:105B2400DA0BAA5685383685393712EACFE555B4EB
:105B34000A0BD29200000000000000C292DF1CDEBB
:105B44001AAF53AE54B294DD12DC10E55070031258
:105B5400ECE212EC6512EBD902ECEC41BAC21C90F7
:105B64000090E0F55712547B12553B30050302ECCC
:105B7400EC853858853959753800753900753A00FF
:0A5B8400E555B40A13125526E55743
:105B8E001270CBD29200000000000000C29212559B
:105B9E0026E5571270CBD29200000000000000C222
:105BAE0092E555B40A13125526E5571270CBD292D0
:105BBE0000000000000000C292125526E557127038
:105BCE00CB301C05E55812DA21D2920000000000FD
:105BDE000000C292E555B40A13125526E55712700D
:105BEE00CBD29200000000000000C292125526E5B2
:105BFE00571270CBD29200000000000000C292E556
:105C0E0055B40A13125526E5571270CBD2920000E6
:105C1E000000000000C292125526E5571270CB30DC
:105C2E001C05E55912DA21D2920000000000000096
:105C3E00C292E555B40A0E125526D292000000000B
:105C4E00000000C292125526D29200000000000001
:105C5E0000C2927B03E555B405027B02E53A13F5CB
:105C6E003AE53913F539E53813F538DBEFD21C3048
:105C7E001903125583DF08DE06AF53AE54B294619A
:105C8E006CC21C12547B900090E0F55790008EE091
:105C9E00F556F9C31304F562FAD21B30980AC2986E
:105CAE00E599B41B0302ECEC753800753900753AB2
:105CBE00007B08E555B405027B0430CFFDC2CFE56D
:105CCE00571270CBD29200000000000000C292DB8F
:105CDE00E930CFFDC2CF7B03E555B405027B02E56B
:105CEE003A13F53AE53913F539E53813F538DBEFA4
:105CFE00D29200000000000000C292301C1AE9701F
:105D0E0009E55812DA21A956C21B201B0BDA09E548
:105D1E005912DA21AA62D21BE555B40A0530CFFD1D
:105D2E00C2CFD908853858853959D21CE555B40AE1
:105D3E000BD29200000000000000C292DF08DE06C7
:065D4E00AF53AE54B29405
:105D540081A9C21C12547BD29100000000000000F3
:105D6400C29120A1FD12553B30050302ECEC8536AF
:105D74005885375985385A85395B7536007537002B
:105D8400753800753900E555B40A1112552612E428
:105D940030D29200000000000000C2921255261278
:105DA400E430301C05E55812DA21D29200000000DC
:105DB400000000C292E555B40A1112552612E430CF
:105DC400D29200000000000000C29212552612E494
:105DD40030301C05E55912DA21D29200000000008F
:105DE4000000C292E555B40A1112552612E430D2CD
:105DF4009200000000000000C29212552612E43006
:105E0400301C05E55A12DA21D2920000000000008D
:105E140000C292E555B40A1112552612E430D2920A
:105E240000000000000000C29212552612E4303037
:105E34001C05E55B12DA21D292000000000000008C
:105E4400C292E555B40A1112552612E430D29200DA
:105E5400000000000000C29212552612E430D292D3
:105E640000000000000000C292D21C301903125539
:105E740083DF08DE06AF53AE54B294A169C21C128C
:105E8400547BD29100000000000000C29120A1FDCB
:105E940012553B30050302ECEC853658853759859D
:105EA400385A85395B853A5C753600753700753824
:105EB40000753900753A00E555B40A1112552612D9
:105EC400E4ABD29200000000000000C292125526FA
:105ED40012E4AB301C05E55812DA21D2920000001E
:105EE40000000000C292E555B40A1112552612E4CE
:105EF400ABD29200000000000000C292125526129C
:105F0400E4AB301C05E55912DA21D29200000000FE
:105F1400000000C292E555B40A1112552612E4ABF2
:105F2400D29200000000000000C29212552612E432
:105F3400AB301C05E55A12DA21D2920000000000B1
:105F44000000C292E555B40A1112552612E4ABD2F0
:105F54009200000000000000C29212552612E4AB29
:105F6400301C05E55B12DA21D2920000000000002B
:105F740000C292E555B40A1112552612E4ABD2922E
:105F840000000000000000C29212552612E4AB305B
:105F94001C05E55C12DA21D292000000000000002A
:045FA400C292D21CB7
:105FA800301903125583DF08DE06AF53AE54B2949E
:105FB800C194754C017401124BD812DAA912755F9D
:105FC80012DAA9300CF7C21C12547BD291000000DF
:105FD80000000000C29120A1FD12553B30050302CC
:105FE800ECEC753900753A00753B00756D00756EFF
:105FF80000756FFF7570FFE555B40A11125526122A
:106008006DE5D29200000000000000C292125526F1
:10601800126DE5D29200000000000000C292E55522
:10602800B40A11125526126DE5D292000000000044
:106038000000C292301C05E55812DA2112552612CA
:106048006DE5D29200000000000000C292E555B450
:106058000A11125526126DE5D292000000000000C8
:1060680000C292125526126DE5D29200000000007F
:106078000000C292E555B40A11125526126DE5D2F8
:106088009200000000000000C292301C05E5591281
:10609800DA21125526126DE5D292000000000000A8
:1060A80000C2927B03E555B405027B02E53B13F57C
:1060B8003BE53A13F53AE53913F539DBEF853958FD
:1060C800853A5912756112DA21E555B40A0E12554E
:1060D80026D29200000000000000C292125526D27B
:1060E8009200000000000000C292D21C3019031276
:1060F8005583DF08DE06AF53AE54B294025FE15316
:1061080045F712D9AA20230AC2B65345CF12D9AAF5
:106118008008D2B65345CF12D9AA12DABCC21C12D3
:10612800547BD29100000000000000C29120A1FD24
:1061380012553B30050302ECEC20230AC2B6534546
:10614800CF12D9AA8008D2B65345CF12D9AA12DBEA
:1061580012753900753A00753B00E555B40A1112FD
:106168005526126F3ED29200000000000000C29235
:10617800301C05E55812DA21125526126F3ED292CC
:1061880000000000000000C292E555B40A11125543
:1061980026126F3ED29200000000000000C292302A
:1061A8001C05E55912DA21125526126F3ED29200CB
:1061B800000000000000C2927B02E555B405027B96
:0661C80001E53B13F53B6D
:1061CE00E53A13F53AE53913F539DBEF853958859C
:1061DE003A59125526D29200000000000000C292D9
:1061EE00D2B64345205345EF12D9AA12DB127539A8
:1061FE0000753A00753B00E555B40A11125526128A
:10620E006F3ED29200000000000000C292301C05CA
:10621E00E55A12DA21125526126F3ED29200000074
:10622E0000000000C292E555B40A11125526126FF5
:10623E003ED29200000000000000C292301C05E524
:10624E005B12DA21125526126F3ED2920000000028
:10625E00000000C2927B02E555B405027B01E53BCE
:10626E0013F53BE53A13F53AE53913F539DBEF85CE
:10627E00395A853A5BE555B40A0E125526D292006C
:10628E00000000000000C292D21C30190312558388
:10629E00DF08DE06AF53AE54B29421385345F712E1
:1062AE00D9AA20230AC2B65345CF12D9AA8008D242
:1062BE00B65345CF12D9AA12DABC12DAC8754C0100
:1062CE007401124BD812DAA912755F12DAA9300CCA
:1062DE00F7C21C12547BD29100000000000000C2D5
:1062EE009120A1FD12553B30050302ECEC20230A50
:1062FE00C2B65345CF12D9AA8008D2B65345CF1293
:10630E00D9AA12DB09753900753A00753B00756D17
:10631E0000756E00756FFF7570FFE555B40A1112AA
:10632E005526126DE5D29200000000000000C292C8
:10633E00301C05E55812DA21125526126DE5D2925F
:10634E0000000000000000C292E555B40A1112557B
:10635E0026126DE5D29200000000000000C29230BD
:10636E001C05E55912DA21125526126DE5D292005E
:10637E00000000000000C2927B02E555B405027BCE
:10638E0001E53B13F53BE53A13F53AE53913F539DB
:10639E00DBEF853958853A59125526D29200000006
:1063AE0000000000C292D2B64345205345EF12D9E9
:1063BE00AA12DB12753900753A00753B00E555B42B
:1063CE000A11125526126F3ED292000000000000F4
:0363DE0000C29268
:1063E100301C05E55A12DA21125526126F3ED2925F
:1063F10000000000000000C292E555B40A111255D8
:1064010026126F3ED29200000000000000C29230BE
:106411001C05E55B12DA21125526126F3ED292005D
:10642100000000000000C2927B02E555B405027B2A
:1064310001E53B13F53BE53A13F53AE53913F53937
:10644100DBEF85395A853A5B12756112DA21E55520
:10645100B40A0E125526D29200000000000000C2BC
:1064610092D21C301903125583DF08DE06AF53AEFA
:1064710054B29441F25345F712D9AAC2B65345CF4B
:1064810012D9AA12DABC12EC518F518E5212EC5B66
:106491008F538E54AF51AE5243444053447F12D96F
:1064A100A0D29100000000000000C29120A1FDD205
:1064B1009100000000000000C29120A1FD1250E6F1
:1064C100900084E075840FF5C8758400D29500C2F0
:1064D10095A3E075840FF5C8758400D29600C29625
:1064E100D21D12512DC2221254F1202209C2B6121C
:1064F100DB12D2228007D2B612DB12C22230CFFDCC
:10650100C2920000000000C2CFD292DB0BD29100F8
:1065110000000000AB55C291DFD0DECE301D10C2AD
:106521001DC293AF53AE54D293DDBFDCBD800AD2FE
:106531001DAF53AE54DDB3DCB120A1FDD2900000FC
:1065410000000000C290E550700312ECE212EC7200
:1065510012EB5E02ECEC5345F712D9AAC2B65345D1
:10656100CF12D9AA12DABC12EC518F518E5212EC11
:106571005B8F538E54AF51AE5212547B900090E01A
:10658100F55760028074D29100000000000000C243
:106591009120A1FD12512D5344F712D9A043440873
:1065A10012D9A0AB55C22230CFFDC292000000002B
:1065B10000C2CFD292DB18D2910000000000AB558F
:0B65C100C291202206D2B6D222800434
:1065CC00C2B6C222DFD6DED4AF53AE54B294DDCC09
:1065DC00DCCA20A1FDD290000000000000C290E5B2
:1065EC0050700312ECE212EC7212EB5E02ECEC5304
:1065FC0044F712D9A043440812D9A090008EE0F5BC
:10660C0056FA30980AC298E599B41B0302ECECC216
:10661C00B612DB12753800753900753A007B04E54B
:10662C0055B405027B0230CFFDC2CFE5571270CBBB
:10663C00D29200000000000000C292DBE97B02E570
:10664C0055B405027B01E53A13F53AE53913F539F2
:10665C00E53813F538DBEFDA0BAA56853836853971
:10666C003712EACF30CFFDC2CFD29200000000002B
:10667C000000C292D2B612DB127538007539007563
:10668C003A007B04E555B405027B0230CFFDC2CF46
:10669C00E5571270CBD29200000000000000C292AD
:1066AC00DBE97B02E555B405027B01E53A13F53ACB
:1066BC00E53913F539E53813F538DBEFDA0BAA5663
:1066CC0085383685393712EACFE555B40A1030CF04
:1066DC00FDC2CFD29200000000000000C292DF1C6D
:1066EC00DE1AAF53AE54B294DD12DC10E5507003D9
:1066FC0012ECE212EC7212EBD902ECECC10E534527
:10670C00F712D9AAC2B65345CF12D9AA12DABCC213
:10671C001C900090E0F55712547B12553B3005034A
:10672C0002ECECC2B612DB12753800753900753A02
:10673C0000E555B40A13125526E5571270CBD292C8
:10674C0000000000000000C292125526E55712709E
:10675C00CBD29200000000000000C292301C05E574
:0E676C005812DA21E555B40A13125526E557E6
:10677A001270CBD29200000000000000C2921255A3
:10678A0026E5571270CB301C05E55912DA21D29250
:10679A0000000000000000C2927B02E555B4050229
:1067AA007B01E53A13F53AE53913F539E53813F57E
:1067BA0038DBEF853858853959125526D2920000B0
:1067CA000000000000C292D2B612DB1275380075C2
:1067DA003900753A00E555B40A13125526E55712E1
:1067EA0070CBD29200000000000000C2921255261F
:1067FA00E5571270CBD29200000000000000C2924E
:10680A00301C05E55A12DA21E555B40A1312552649
:10681A00E5571270CBD29200000000000000C2922D
:10682A00125526E5571270CB301C05E55B12DA21AA
:10683A00D29200000000000000C292E555B40A0E90
:10684A00125526D29200000000000000C2927B027C
:10685A00E555B405027B01E53A13F53AE53913F536
:10686A0039E53813F538DBEF85385A85395BD21CA0
:10687A00301903125583DF08DE06AF53AE54B294C3
:10688A000267265345F712D9AAC2B65345CF12D981
:10689A00AA12DABCC21C12547BD29100000000007A
:1068AA000000C29120A1FD12553B30050302ECEC19
:1068BA00C2B612DB127536007537007538007539A5
:1068CA0000E555B40A1112552612E430D29200009E
:1068DA000000000000C292301C05E55812DA2112AD
:1068EA00552612E430301C05E55912DA21D29200FD
:1068FA00000000000000C292E555B40A11125526A4
:10690A0012E430D29200000000000000C292301C53
:10691A0005E55A12DA2112552612E430301C05E533
:10692A005B12DA21D29200000000000000C29285B8
:10693A00365885375985385A85395B125526D29289
:10694A0000000000000000C292D2B612DB127536B7
:10695A0000753700753800753900E555B40A11120B
:10696A00552612E430D29200000000000000C292C4
:05697A00301C05E55C86
:10697F0012DA2112552612E430301C05E55D12DAC9
:10698F0021D29200000000000000C292E555B40A27
:10699F001112552612E430D29200000000000000C0
:1069AF00C292301C05E55E12DA2112552612E43030
:1069BF00D29200000000000000C292301C05E55F7B
:1069CF0012DA2185365C85375D85385E85395FE55E
:1069DF0055B40A0E125526D2920000000000000096
:1069EF00C292D21C301903125583DF08DE06AF5353
:1069FF00AE54B29401B1C21C12547B5345F712D955
:106A0F00AAC2B65345CF12D9AA12DABCD29100004E
:106A1F000000000000C29120A1FD12553B3005037C
:106A2F0002ECECC2B612DB12753600753700753802
:106A3F0000753900753A00E555B40A111255261242
:106A4F00E4ABD29200000000000000C292301C059F
:106A5F00E55812DA2112552612E4AB301C05E55920
:106A6F0012DA21D29200000000000000C292E55518
:106A7F00B40A1112552612E4ABD2920000000000A6
:106A8F000000C292301C05E55A12DA211255261267
:106A9F00E4AB301C05E55B12DA21D2920000000056
:106AAF00000000C292301C05E55C12DA21853658D1
:106ABF0085375985385A85395B853A5C125526D208
:106ACF009200000000000000C292D2B612DB1275D5
:106ADF003600753700753800753900753A00E55581
:106AEF00B40A1112552612E4ABD292000000000036
:106AFF000000C292301C05E55D12DA2112552612F4
:106B0F00E4AB301C05E55E12DA21D29200000000E2
:106B1F00000000C292E555B40A1112552612E4ABDB
:106B2F00D29200000000000000C292301C05E55F09
:106B3F0012DA2112552612E4AB301C05E56012DA89
:106B4F0021D29200000000000000C292E555B40A65
:106B5F000E125526D29200000000000000C29230A3
:106B6F001C05E56112DA2185365D85375E85385F54
:106B7F00853960853A61D21C301903125583DF08BD
:0D6B8F00DE06AF53AE54B2944129754C019F
:106B9C007401124BD812DAA9754D01740112D6E7A3
:106BAC0012DAA95345F712D9AAC2B65345CF12D956
:106BBC00AA12DABC12755F12DAA9300CF71276053C
:106BCC0012DAA9300DF7C21C12547BD291000000CE
:106BDC0000000000C29120A1FD12553B30050302BC
:106BEC00ECECC2B612DB1212755FF560301C05E5D9
:106BFC006012DA21125526D292000000000000002B
:106C0C00C292753600753700753800753900E55538
:106C1C00B40A1112552612E430D292000000000082
:106C2C000000C292301C05E55812DA2112552612CA
:106C3C00E430301C05E55912DA21D2920000000034
:106C4C00000000C292E555B40A1112552612E43028
:106C5C00D29200000000000000C292301C05E55AE0
:106C6C0012DA2112552612E430301C05E55B12DADB
:106C7C0021D29200000000000000C2928536588597
:106C8C00375985385A85395BD2B612DB1212760524
:106C9C00F561753600753700753800753900E555A6
:106CAC00B40A0E125526D29200000000000000C259
:106CBC0092301C05E56112DA21E555B40A11125522
:106CCC002612E430D29200000000000000C2923084
:106CDC001C05E55C12DA2112552612E430301C0535
:106CEC00E55D12DA21D29200000000000000C29291
:106CFC00E555B40A1112552612E430D29200000068
:106D0C0000000000C292301C05E55E12DA2112551B
:106D1C002612E430D29200000000000000C2923033
:106D2C001C05E55F12DA2185365C85375D85385E9A
:106D3C0085395FD21C301903125583DF08DE06AF8C
:106D4C0053AE54B29461E5C007C006C005C004C080
:106D5C0003C00275840F759C0075C8FF759D007586
:106D6C00D8FF758400D29100000000000000C29191
:106D7C00C2A07D007C007B007A0090008E12EC6833
:106D8C0075840F20A1FD12DB3BE5D82DFDE5C83C39
:046D9C00FC50050B97
:106DA000EB70010AD29100000000000000C291DFE8
:106DB000DEDEDC758400D2A075840F759CFF7584BF
:106DC00000900090E0FFEA13FAEB13FBEC13FCEDEC
:106DD00013FDDFF28D368C37D002D003D004D005FE
:106DE000D006D00722C007C006C005C004C003C03B
:106DF00002C001C00075840F759C0075C8FF759DA9
:106E00000075D8FF758400D29100000000000000DA
:106E1000C291C2A07D007C007B007A0090008E129F
:106E2000EC6875840F20A1FDE5D8F92DFDE5C8F8C3
:106E30003CFCD29100000000000000C29150050B04
:106E4000EB70010AC3E9956FE895705004896F886B
:106E500070C3E9956DE8956E4004896D886EDFC555
:106E6000DEC3758400D2A075840F759CFF75840005
:106E7000900090E0FFC3EA13FAEB13FBEC13FCED78
:106E800013FDDFF1E5392DF539E53A3CF53A5002CD
:106E9000053BD000D001D002D003D004D005D006ED
:106EA000D00722C007C006C005C004C003C002C08E
:106EB00082C08375840F759C0075C8FF759D007531
:106EC000D8FF758400D29100000000000000C2913C
:106ED000C2A07D007C007B007A0090008E12EC68DE
:106EE00075840F20A1FD12DB3BE5D82DFDE5C83CE4
:046EF000FC50050B42
:106EF400EB70010AD29100000000000000C291DF93
:106F0400DEDEDC758400D2A075840F759CFF758469
:106F140000900090E0FFC3EA13FAEB13FBEC13FCC0
:106F2400ED13FDDFF18D368C37D083D082D002D0C3
:106F340003D004D005D006D00722C007C006C00580
:106F4400C004C003C00275840F759C0075C8FF752A
:106F54009D0075D8FF758400D291000000000000E8
:106F640000C291C2A07D007C007B007A0090008E5C
:106F740012EC6875840F20A1FD12DB3BE5D82DFDD2
:106F8400E5C83CFC50050BEB70010AD291000000EF
:106F940000000000C291DFDEDEDC758400D2A07543
:106FA400840F759CFF758400900090E0FFC3EA1382
:106FB400FAEB13FBEC13FCED13FDDFF1E5392DF5D2
:106FC40039E53A3CF53A5002053BD002D003D004EF
:106FD400D005D006D00722D29100000000000000A6
:106FE400C291C007C006C005C00475840F759C001B
:106FF40075C8FF759D0075D8FF758400C2A07E001A
:107004007D007C007F1075840F20A1FD12DB3BE521
:10701400D82EFEE5C83DFD50010CD29100000000C1
:10702400000000C291DFE2758400D2A075840F7560
:107034009CFF7584007F04EC13FCED13FDEE13FE3E
:10704400DFF58E368D37D004D005D006D00722D296
:0A7054009100000000000000C2914E
:10705E00C007C006C005C00475840F759C0075C8B6
:10706E00FF759D0075D8FF758400C2A07E007D005F
:10707E007C007F0075840F20A1FD12DB3BE5D82E2E
:10708E00FEE5C83DFD50010CD2910000000000004D
:10709E0000C291DFE2758400D2A075840F759CFF4B
:1070AE007584007F08EC13FCED13FDEE13FEDFF587
:1070BE008E368D37D004D005D006D0072275840FBA
:1070CE0011D475840022B40004311F8033B401043E
:1070DE00314A802CB4020431AC8025B40304511221
:1070EE00801EB40404517B8017B4050451E1801056
:1070FE00B4060471478009B4070471AD8002911380
:10710E00E5382536F538E5393537F5395002053A83
:10711E0022759C0075C8FF759D0075D8FFC2A02012
:10712E00A1FD12DB3B85C83685D837D29100000011
:10713E0000000000C291D2A0759CFF22D2910000E7
:10714E000000000000C291C007C006C005C0047553
:10715E009C0075C8FF759D0075D8FFC2A07E007D8E
:10716E00007C007F0220A1FD12DB3BE5D82EFEE560
:10717E00C83DFD50010CD29100000000000000C27D
:10718E0091DFE2D2A0759CFFEC13FCED13FDEE1324
:10719E00FE8E368D37D004D005D006D00722D29180
:1071AE0000000000000000C291C007C006C005C06C
:1071BE0004759C0075C8FF759D0075D8FFC2A07E32
:1071CE00007D007C007F0420A1FD12DB3BE5D82E64
:0371DE00FEE5C803
:1071E1003DFD50010CD29100000000000000C29151
:1071F100DFE2D2A0759CFF7F02EC13FCED13FDEEE4
:1072010013FEDFF58E368D37D004D005D006D007BA
:1072110022D29100000000000000C291C007C00608
:10722100C005C004759C0075C8FF759D0075D8FF29
:10723100C2A07E007D007C007F0820A1FD12DB3B07
:10724100E5D82EFEE5C83DFD50040C12DB3BD29182
:1072510000000000000000C291DFDFD2A0759CFF9A
:107261007F03EC13FCED13FDEE13FEDFF58E368D7F
:1072710037D004D005D006D00722D29100000000FB
:10728100000000C291C007C006C005C004759C0083
:1072910075C8FF759D0075D8FFC2A07E007D007C7A
:1072A100007F1020A1FD12DB3BE5D82EFEE5C83D95
:1072B100FD50010CD29100000000000000C291DFDE
:1072C100E2D2A0759CFF7F04EC13FCED13FDEE13DD
:1072D100FEDFF58E368D37D004D005D006D00722DB
:1072E100D29100000000000000C291C007C006C09A
:1072F10005C004759C0075C8FF759D0075D8FFC257
:10730100A07E007D007C007F2020A1FD12DB3BE5FB
:10731100D82EFEE5C83DFD50010CD29100000000C1
:10732100000000C291DFE2D2A0759CFF7F05EC1343
:0B733100FCED13FDEE13FEDFF58E36C1
:10733C008D37D004D005D006D00722D291000000A2
:10734C0000000000C291C007C006C005C004759CB7
:10735C000075C8FF759D0075D8FFC2A07E007D002A
:10736C007C007F4020A1FD12DB3BE5D82EFEE5C85A
:10737C003DFD50010CD29100000000000000C291B4
:10738C00DFE2D2A0759CFF7F06EC13FCED13FDEE43
:10739C0013FEDFF58E368D37D004D005D006D0071E
:1073AC0022D29100000000000000C291C007C0066C
:1073BC00C005C004759C0075C8FF759D0075D8FF8D
:1073CC00C2A07E007D007C007F8020A1FD12DB3BF3
:1073DC00E5D82EFEE5C83DFD50010CD29100000011
:1073EC0000000000C291DFE2D2A0759CFF7F07EC89
:1073FC0013FCED13FDEE13FEDFF58E368D37D00446
:10740C00D005D006D00722D2910000000000000069
:10741C00C291C007C006C005C004759C0075C8FFAA
:10742C00759D0075D8FFC2A07E007D007C007F009A
:10743C0020A1FD12DB3BE5D82EFEE5C83DFD500139
:10744C000CD29100000000000000C291DFE2D2A03B
:10745C00759CFF7F08EC13FCED13FDEE13FEDFF5BE
:10746C008E368D37D004D005D006D00722C004C08C
:10747C0005C006C00775840F759C0075C8FF759D07
:10748C000075D8FF758400D2910000000000000048
:10749C00C291C2A07E207F0075360075370075380A
:0A74AC0000753900756D00756E0063
:1074B600756FFF7570FF75840275CA0C75CC0C75F7
:1074C600CBFF75CDFFD2CAC2CF75840230CFFDC2C5
:1074D600CF75840FE5D8FD2536F536E5C8FCD29183
:1074E60000000000000000C2913537F5375008054E
:1074F60038E53870020539C3ED956FEC9570500488
:107506008D6F8C70C3ED956DEC956E40048D6D8C12
:107516006EDFB6DEB4758400D2A075840F759CFF4D
:1075260075840075840275CA3875CC3875CBFF75BD
:10753600CDFFC2CA758400C37F0DE53913F539E561
:107546003813F538E53713F537E53613F536DFEA40
:10755600D007D006D005D004229179E56DC3946496
:10756600E56E94A6400302759BE56FC3949CE57097
:107576009459500302759BE56DC394EBE56E9481B7
:10758600500EE56FC39414E570947E40030275D1E6
:10759600D20CE54C22E54CB4000280F4C007FFC2D1
:1075A6000C14F54CB4080E7401124CB67400124C4F
:1075B600C67407800FB4070C7400124CB674001220
:1075C6004CC67407124BD8EFD00722E54CB406021E
:1075D60080BEC007FFC20C04F54CB4090C7401123E
:1075E6004CB6124CC67407800FB4080C7401124CCA
:0675F600B67400124CC641
:1075FC007407124BD8EFD00722D2B612DAEE91797B
:10760C00E56DC39464E56E94A64003027646E56F7F
:10761C00C3949CE57094595003027646E56DC3946F
:10762C00EBE56E9481500EE56FC39414E570947E77
:10763C00400302767CD20DE54D22E54DB40102806B
:10764C00F4C007FFC20D14F54DB4080E740112D727
:10765C001C740012D7317407800FB4070C7400121D
:10766C00D71C740012D731740712D6E7EFD007225B
:10767C00E54DB4090280BEC007FFC20D04F54DB440
:10768C00090C740112D71C12D7317407800FB4087F
:10769C000C740112D71C740012D731740712D6E780
:1076AC00EFD007229000AC7400F0A3F0C2947800E5
:1076BC007900900078E0FFA3E0FE900088E0600283
:1076CC00F10A900084E0FBA3E0FA90000EE0FDA329
:1076DC00E0FCF117F10A900086E0FBA3E0FAF11749
:1076EC00F10A900086E0FBA3E0FAF117F10A7B6443
:1076FC007A00F11743440412D9A012DA2122EE6465
:0A770C00FFFEEF64FF04FF70010EA2
:10771600225344EF12D9A043450212D9AAEB6001C5
:107726000AED75840FF5C8758400D29500C295ECF4
:1077360075840FF5C8758400D29600C296C2930070
:10774600D2935345FD12D9AAE975840FF5C87584FD
:1077560000D29500C295E875840FF5C8758400D2ED
:107766009600C296C29300D29309E9700108534469
:10777600FB12D9A05344FD12D9A043440212D9A04A
:1077860043440412D9A043450212D9AAED2FFDECB9
:107796003EFCDB8DDA8B221255AC53443F12D9A046
:1077A6007564009000D012EC688507058506041202
:1077B600EC518F678E6890015CE0F560A3E0F5619F
:1077C60090015EE0F562A3E0F563E56075840FF570
:1077D600C8758400D29500C295E56175840FF5C819
:1077E600758400D29600C296C29300D29390008A06
:1077F600E0B40002803DB40102218EB4030241913F
:10780600B404024191B405024191B40D026147B43A
:107816000E026147B40F026147B414028160B415C9
:1078260002A1D3B41702C1C1B41802C1C1B419026E
:10783600C1C12243444053447F12D9A0D2910000D3
:107846000000000000C29120A1FDD29100000000BE
:10785600000000C29120A1FD12512D75840FD2A007
:10786600759CFFD2A20000C2A2E562F5C800D295BF
:1078760000C295E563F5C800D29600C296C2930091
:10788600D293C2A0759C0075C8FF759D0075D8FF80
:107896007584001254F130CFFDC2CFD291000000A2
:1078A60000000000C291DFEEDEECDD04DC022150B8
:1078B60075840FD2A20000C2A2D2A0759CFFE5601B
:1078C600F5C800D29500C295E561F5C800D29600CC
:1078D600C296C29300D293C2A0759C0075C8FF756C
:1078E6009D0075D8FF758400AF67AE681254F130FD
:1078F600CFFDC2CFD29100000000000000C291DF90
:10790600EEDEECDD04DC02804175840FD2A20000BD
:10791600C2A2D2A0759CFFE562F5C800D29500C24E
:1079260095E563F5C800D29600C296C29300D2933D
:02793600C2A0ED
:10793800759C0075C8FF759D0075D8FF758400AFEC
:1079480067AE681254F1019C20A1FDD2900000009E
:10795800000000C290D2A075840F759CFF7584004A
:10796800E550700312ECE2E564601275840FD2F8FA
:10797800758400E56512DA21E56612DA2112EC65F4
:1079880012EB5E02ECECD2A20000C2A2E5627584A2
:107998000FF5C8758400D29500C295E56375840F0C
:1079A800F5C8758400D29600C2965344F712D9A040
:1079B80043440812D9A012547B30980AC298E5991A
:1079C800B41B0302ECEC30CFFDC2CF126EA312EA57
:1079D800CFDFE6DEE4DD04DC02416BC29300D29324
:1079E800D2A20000C2A2E56075840FF5C8758400B4
:1079F800D29500C295E56175840FF5C8758400D2EB
:107A08009600C296C29300D293AF67AE6830980AC8
:107A1800C298E599B41B0302ECEC30CFFDC2CF123B
:107A28006EA312EACFDFE6DEE4DD04DC028034C2B6
:107A38009300D293D2A20000C2A2E56275840FF52A
:107A4800C8758400D29500C295E56375840FF5C8A2
:107A5800758400D29600C296C29300D293AF67AEE7
:107A68006821C1E550700312ECE2E5646012758488
:107A78000FD2F8758400E56512DA21E56612DA217D
:107A880012EC6512EBD902ECECD2A20000C2A2E51E
:107A98006275840FF5C8758400D29500C295E563B8
:107AA80075840FF5C8758400D29600C29612547B6F
:107AB80012EC5112550930050302ECEC12E70012E2
:107AC800DB7FDFEFDEEDDD04DC028070C29300D2E5
:107AD80093D2A20000C2A2E56075840FF5C8758430
:107AE80000D29500C295E56175840FF5C8758400CC
:107AF800D29600C29612EC5112550930050302ECD9
:107B0800EC12E70012DB7FDFEFDEEDDD04DC028044
:107B18002BC29300D293D2A20000C2A2E562758460
:107B28000FF5C8758400D29500C295E56375840F7A
:107B3800F5C8758400D29600C29641B802ECEC53A1
:107B480045F712D9AAC2B65345CF12D9AA12DABC40
:107B5800D2A20000C2A2E56275840FF5C875840040
:107B6800D29500C295E56375840FF5C8758400D277
:107B78009600C2965344F712D9A043440812D9A0DC
:107B880012547B90008AE0C3940AF012EC5112550B
:107B98000930050302ECECC2B65345CF12D9AA123C
:057BA800DB1212E700F2
:107BAD0012DB7FD2B64345205345EF12D9AA12DB23
:107BBD001212E70012DB7FDFD0DECEDD04DC0281A6
:107BCD005DC29300D293D2A20000C2A2E56075847B
:107BDD000FF5C8758400D29500C295E56175840FC7
:107BED00F5C8758400D29600C29612EC5112550953
:107BFD0030050302ECECC2B65345CF12D9AA12DB05
:107C0D001212E70012DB7FD2B64345205345EF1227
:107C1D00D9AA12DB1212E70012DB7FDFD0DECEDD38
:107C2D0004DC02802BC29300D293D2A20000C2A228
:107C3D00E56275840FF5C8758400D29500C295E58F
:107C4D006375840FF5C8758400D29600C296619352
:107C5D0002ECEC5345F712D9AAC2B65345CF12D94F
:107C6D00AA12DABC53443F12D9A0D29100000000F1
:107C7D00000000C29120A1FD12512D75840FD2A0DC
:107C8D00759CFFD2A20000C2A2E562F5C800D29594
:107C9D0000C295E563F5C800D29600C296C2930066
:107CAD00D293C2A0759C0075C8FF759D0075D8FF55
:107CBD007584001254F130CFFDC2CFD29100000077
:107CCD0000000000C29120A1FDD2B630CFFDC2CF81
:107CDD00D29100000000000000C29120A1FDC2B6AB
:107CED00DFD4DED2DD04DC02A1AB75840FD2A2009D
:107CFD0000C2A2D2A0759CFFE560F5C800D2950028
:107D0D00C295E561F5C800D29600C296C29300D225
:107D1D0093C2A0759C0075C8FF759D0075D8FF7541
:107D2D008400AF67AE681254F130CFFDC2CFD2914F
:107D3D0000000000000000C29120A1FDD2B630CF9E
:107D4D00FDC2CFD29100000000000000C29120A121
:107D5D00FDC2B6DFD4DED2DD04DC02804175840FB6
:107D6D00D2A20000C2A2D2A0759CFFE562F5C800A8
:107D7D00D29500C295E563F5C800D29600C296C2B1
:107D8D009300D293759C0075C8FF759D0075D8FF43
:107D9D00C2A0758400AF67AE681254F181C320A1F3
:107DAD00FDD290000000000000C290D2A075840F9B
:107DBD00759CFF758400E550700312ECE212EC72B5
:107DCD0012EB5E02ECEC5345F712D9AAC2B653453D
:107DDD00CF12D9AA12DABCD2A20000C2A2E56275F6
:107DED00840FF5C8758400D29500C295E56375843E
:107DFD000FF5C8758400D29600C2965344F712D978
:107E0D00A043440812D9A012547B30980AC298E5B9
:107E1D0099B41B0302ECEC30CFFDC2CF12DE59DF5B
:037E2D00E9DEE7A4
:107E3000DD04DC02807BC29300D293D2A20000C298
:107E4000A2E56075840FF5C8758400D29500C295CF
:107E5000E56175840FF5C8758400D29600C296AFAF
:107E600067AE6830980AC298E599B41B0302ECEC3F
:107E700030CFFDC2CF12DE59DFE9DEE7DD04DC02E0
:107E8000802FC29300D293D2A20000C2A2E56275F5
:107E9000840FF5C8758400D29500C295E56375849A
:107EA0000FF5C8758400D29600C296AF67AE68C160
:107EB00017E550700312ECE212EC7212EBD902ECEF
:107EC000EC5345F712D9AAC2B65345CF12D9AA121C
:107ED000DABCD2A20000C2A2E56275840FF5C875B3
:107EE0008400D29500C295E56375840FF5C875844A
:107EF00000D29600C2965344F712D9A04344081208
:107F0000D9A012547B90008AE0C39414F012EC5173
:107F100012550930050302ECEC12DE3712DB7F85C7
:107F2000513685523785533885543985553A12DB99
:107F30007FDFDDDEDBDD04DC02E1C7C29300D2932C
:107F4000D2A20000C2A2E56075840FF5C875840056
:107F5000D29500C295E56175840FF5C8758400D28D
:107F60009600C296C29300D29312EC51125509307A
:107F7000050302ECEC12DE3712DB7F8551368552A9
:107F80003785533885543985553A12DB7FDFDDDE7E
:107F9000DBDD04DC028030C29300D293D2A2000069
:107FA000C2A2E56275840FF5C8758400D29500C23F
:107FB00095E56375840FF5C8758400D29600C29666
:107FC000C29300D293E10D02ECEC1255AC53443F46
:107FD00012D9A07564017400124E6C9000D012EC9E
:107FE0006885070585060412EC518F678E6890013D
:107FF0005CE0F560A3E0F56190015EE0F562A3E06E
:10800000F563E56075840FF5C8758400D29500C2EC
:1080100095E56175840FF5C8758400D29600C29607
:10802000C29300D29390008AE0B40A028007B40B96
:108030000201B501D243444053447F12D9A0D291EA
:1080400000000000000000C29120A1FDD2910000BC
:108050000000000000C29120A1FD126FDB1251B799
:1080600075840FC2F875840012DAD4126FDB85367E
:0A8070006585376612512D75840FE7
:10807A00D2A0759CFFD2A20000C2A2E562F5C80098
:10808A00D29500C295E563F5C800D29600C296C2A1
:10809A009300D293C2A0759C0075C8FF759D0075A8
:1080AA00D8FF7584001254F102789C126FDB1251CA
:1080BA00B775840FC2F875840012DAD4126FDB85A3
:1080CA00366585376602798E126FDB1251B7758471
:1080DA000FC2F875840012DAD4126FDB8536658513
:1080EA003766D2A20000C2A2E56275840FF5C87590
:1080FA008400D29500C295E56375840FF5C875842E
:10810A0000D29600C296C29300D2935344F712D972
:10811A00A043440812D9A012547BE56512DA21E57E
:10812A006612DA2112EC5112550930050302ECEC01
:10813A00126FDB90009EE060335336FEE53724E68B
:10814A0040028006E537241A502243360175840F0F
:10815A00D2F875840012DAEE12DAEE12DAEE12DAD8
:10816A00EE12DAEE75840FC2F87584001251B7DF89
:10817A00B6DEB4DD04DC02412CD2A20000C2A2E5C4
:10818A006075840FF5C8758400D29500C295E561C3
:10819A0075840FF5C8758400D29600C296C2930002
:1081AA00D29312EC5112550930050302ECEC126F0E
:1081BA00DB90009EE060335336FEE53724E640024A
:1081CA008006E537241A502243360175840FD2F807
:1081DA0075840012DAEE12DAEE12DAEE12DAEE1222
:1081EA00DAEE75840FC2F87584001251B7DFB6DE75
:1081FA00B4DD04DC02802BD2A20000C2A2E56275C3
:10820A00840FF5C8758400D29500C295E56375841C
:10821A000FF5C8758400D29600C296C29300D29315
:10822A00212E75840FD2F875840002ECEC740012CA
:10823A004E6C740A124BD812DAD475840FC2F875D0
:10824A00840012DAD490000E124FC112547B126FBE
:10825A00DB853665853766125509126FDB75840F23
:10826A00D2F8758400E56512DA21E56612DA211280
:10827A0051B77401124BD8C2CAC2CFC2AFC2AD2223
:0D828A0090001EE0F532A3E0F5331250899C
:1082970022900020E0F532A3E0F53312509C2290A3
:1082A7000022E0F532A3E0F5331250AF222222E09C
:1082B7002DFDA3E03CFCA3E03BFBF532A3E03AFA3B
:1082C700F53322C000C001C006C007E0F8A3E0F9FB
:1082D700A3E0FEA3E0FFC3ED98FDEC99FCEB9EFB4A
:1082E700F532EA9FFAF533D007D006D001D0002245
:1082F7001255AC53443F12D9A07D007C0090000E6C
:10830700E0FBF532A3E0FAF533124FE690015C513A
:10831700B612EC6590008AE09409400261E1900092
:10832700E071A612550930050302ECEC9000E871E4
:10833700A612E53A124FE6853662853763853864BB
:10834700853965853A6690008CE0B4000790007423
:1083570051B6800A90000EE0F532A3E0F5331255CE
:108367000930050302ECEC9000E071A612E53A1221
:108377009DEA124FE612DB7F856236856337856497
:108387003885653985663A90008CE0B4000312DBC6
:108397007F90015C51B6DF05DE0302ECEC8084C000
:0D83A70007C006C005C004C003AF82AE834E
:1083B4009000D8AD82AC837B088F828E83E0A3AF1C
:1083C40082AE838D828C83F0A3AD82AC83DBEA1210
:1083D400547BD003D004D005D006D007225345F7F0
:1083E40012D9AAC2B65345CF12D9AA12DABC900048
:1083F4008AE0C39414F09000E071A6125509300588
:108404000302ECEC9000E871A612DBA0124FE685A3
:10841400366785376885386985396A853A6B855149
:108424006C85526D85536E85546F85557090008CA4
:10843400E0B4000790007451B6800A90000EE0F595
:1084440032A3E0F53312550930050302ECEC900039
:10845400E071A612DBA0129DEA124FE612DB7F85C3
:10846400513685523785533885543985553A12DB50
:108474007F90008CE0B40024856736856837856971
:1084840038856A39856B3A12DB7F856C36856D37A2
:10849400856E38856F3985703A12DB7F90015C51A7
:1084A400B6DF05DE0302ECEC61FF1255AC53443F2A
:1084B40012D9A05344F712D9A043440812D9A07D7D
:1084C400007C0090000EE0FBF532A3E0FAF53312D5
:1084D4004FE6900084E0F55B900088E0C2186002EB
:1084E400D21890008AE094095004C215801BD2155A
:1084F4005345F712D9AAC2B65345CF12D9AA12DAF4
:10850400BC90008AE0C39414F012547B9000D01203
:10851400EC688F628E6312EC651255093005030214
:0F852400ECEC30180790007451B6800590015CA4
:1085330051B6155BE55B70E2900084E0F55B2015B6
:108543001D90008AE0B40108126EA312EACF8003E3
:1085530012E53A124FE6129DEA12DB7F802712DB07
:10856300A0124FE6129DEA90008AE0B40102801542
:1085730012DB7F85513685523785533885543985CB
:10858300553A12DB7FDF27DE25B218D56222D56389
:108593001FE550700312ECE290008AE0B4010C1264
:1085A300EC5B30150312EC6012EBD902ECECA11D6D
:1085B300A11A1250E690009CE075840FF5C87584EB
:1085C30000D29500C295A3E075840FF5C8758400A9
:1085D300D29600C296C29300D293D2A20000C2A246
:1085E300900012E0F567A3E0F568900014E0F565EC
:1085F300A3E0F56612570D90009EE0F551F8900048
:10860300A0E0F552D226753A00753B00753C00C2D6
:10861300259000D0E0B40202D225C21BC21DD22491
:1086230090008AE07005C22412515812547B9000C6
:108633008612ECB290008412EC68125509300503DF
:1086430002ECEC126EA3C29200000000000000D204
:1086530092E53A2536F53AE53B3537F53B500205C9
:108663003CD85FA85130260FC226302408301B5255
:10867300E53812DA21804BA952C3E53C13F53CE5FA
:108683003B13F53BE53A13F53AD9EFD226302410E4
:10869300301B05E53912DA21853A38853B398009E3
:0B86A300853A36853B3712EACFD21B28
:1086AE00753A00753B00753C00201D05125722805F
:1086BE0003125746125011DF2FDE2DC29300D293B4
:1086CE00DD24DC2230240AE53812DA21E53912DA0B
:1086DE0021302506C225D21DC13120240612EC659B
:1086EE0012EBD902ECECC137C13D1255AC53443FED
:1086FE0012D9A07D007C0090000EE0FBF532A3E0C5
:10870E00FAF533124FE612547B12EC6590008AE0B4
:10871E00B40002803FB40103028827B4020302882A
:10872E0085B403030288BFB404030288BFB40503F3
:10873E000288BFB41403028902B41503028A26B458
:10874E001603028A8FB41703028AECB41803028A46
:10875E00EC028AECD29100000000000000C29120D1
:10876E00A1FD90015C51B6124FE612512D12547BB1
:10877E0030CFFDC2CFD29100000000000000C291A8
:10878E0020A1FD12DB3AD2A075840F759CFF758473
:10879E000090007451B6124FE6C2A075840F759CFE
:1087AE000075C8FF759D0075D8FF75840030CFFD2C
:1087BE00C2CFD29100000000000000C29120A1FDA6
:1087CE0012DB3AD2A075840F759CFF758400900160
:1087DE005C51B6124FE6C2A075840F759C0075C829
:1087EE00FF759D0075D8FF758400DF2ADE2820A155
:1087FE00FDD290000000000000C290D2A075840F40
:10880E00759CFF758400E550700312ECE212EC7259
:10881E0012EB5E02ECEC02877E5344F712D9A043B2
:10882E00440812D9A090015C1282B6124FE630981D
:10883E000AC298E599B41B0302ECEC30CFFDC2CF0F
:10884E00126EA312EACF9000741282B6124FE63067
:10885E00CFFDC2CF126EA312EACF90015C1282B688
:10886E00124FE6DFC9DEC7E550700312ECE212ECE0
:10887E007212EBD902ECEC90015C1282B6124FE64A
:0C888E0012550930050302ECEC126EA339
:10889A009000741282B6124FE61251B7125509129D
:1088AA006EA390015C1282B6124FE61251B7DFD462
:1088BA00DED202ECEC12E70090015C1282B6124F93
:1088CA00E612550930050302ECEC12E70090007439
:1088DA001282B6124FE612DB7F12550930050302E7
:1088EA00ECEC12E70090015C1282B6124FE612DB42
:1088FA007FDFCEDECC02ECEC5345F712D9AAC2B622
:10890A005345CF12D9AA12DABCD291000000000056
:10891A000000C29120A1FD90015C1282B6124FE6BE
:10892A0012512D12547B30CFFDC2CFC2B65345CF60
:10893A0012D9AA12DB12D29100000000000000C274
:10894A009120A1FDD2B65345CF12D9AA12DB12D279
:10895A009100000000000000C29120A1FD0000006B
:10896A000000D2A075840F759CFF75840090007476
:10897A001282B6124FE6C2A075840F759C0075C8A4
:10898A00FF759D0075D8FF75840030CFFDC2CFC238
:10899A00B65345CF12D9AA12DB12D29100000000B9
:1089AA00000000C29120A1FDD2B65345CF12D9AA28
:1089BA0012DB12D29100000000000000C29120A137
:1089CA00FD0000000000D2A075840F759CFF75841D
:1089DA000090015C1282B6124FE6C2A075840F7530
:1089EA009C0075C8FF759D0075D8FF758400DF2A45
:1089FA00DE2820A1FDD290000000000000C290D223
:108A0A00A075840F759CFF758400E550700312EC05
:108A1A00E212EC8512EB5E02ECEC21305345F712C0
:108A2A00D9AAC2B65345CF12D9AA12DABC5344F70F
:108A3A0012D9A043440812D9A090015C1282B6123E
:108A4A004FE630980AC298E599B41B0302ECEC3061
:108A5A00CFFDC2CF12DE599000741282B6124FE6D1
:108A6A0030CFFDC2CF12DE5990015C1282B6124F8E
:108A7A00E6DFCFDECDE550700312ECE212EC851290
:108A8A00EBD902ECEC5345F712D9AAC2B65345CF3B
:108A9A0012D9AA12DABC90015C1282B6124FE612FF
:108AAA00550930050302ECEC12DF9A900074128229
:0A8ABA00B6124FE61251B78551368F
:108AC4008552371251B712550912DF9A90015C1280
:108AD40082B6124FE61251B785513685523712517C
:108AE400B7DFC2DEC002ECEC5345F712D9AAC2B616
:108AF4005345CF12D9AA12DABC1255093005030224
:108B0400ECEC9000741282B6124FE612550930054F
:108B14000302ECEC9000741282CA124FE690008AB1
:108B2400E0C39414F012DBA090015C1282B6124FE1
:108B3400E612550930050302ECEC12DBA090007438
:108B44001282B6124FE612DB7F8551368552378585
:108B5400533885543985553A12DB7F12550930054F
:108B64000302ECEC12DBA090015C1282B6124FE619
:108B740012DB7F85513685523785533885543985C4
:108B8400553A12DB7FDFAADEA802ECECC294900017
:108B940086E0F9A3E0F812EC513098FDC298AB9945
:108BA4003098FDC298AA9971BBDFEEDEEC43440411
:108BB40012D9A012DA2122EB75840FF5C87584004E
:108BC400D29500C295EA75840FF5C8758400D296D3
:108BD40000C296C29300D2935345FD12D9AAE975F7
:108BE400840FF5C8758400D29500C295E875840F8A
:108BF400F5C8758400D29600C296C29300D2930938
:108C0400E97001085344FB12D9A05344FD12D9A0C2
:108C140043440212D9A043440412D9A0434502128A
:108C2400D9AA221255ACC20B90008AE06002D20B82
:108C3400E599C29812EC65C006C0079000D8E0C35D
:108C440094D8A3E094FF401943444053447F12D97D
:108C5400A0D29100000000000000C29120A1FD807C
:108C64000653443F12D9A0B13212553B30050302DA
:108C7400ECEC300B0D12DA50600812DA50124CD6BC
:0D8C840080B59000B2E0603C7400124CB668
:108C91007400124CC675320075338012501712DA07
:108CA100C812521D12DA50600B12DA50124CD61251
:108CB100DAC880ED12DA50F53212DA50F53312507B
:108CC1001712DA50124CD6C000C001C002C0039086
:108CD1000012E0FAA3E0FB900014E0F8A3E0F990A1
:108CE1000074E028F8A3E039F9900076E03AFAF54B
:108CF10032A3E03BFBF533125011900012EAF0A3CE
:108D0100EBF0900014E8F0A3E9F0D003D002D00119
:108D1100D000129DEA12553B30050302ECEC12DA49
:108D21005012DAC8D007D006DF05DE0302ECEC8171
:108D31003B78517914760008D9FB9000A8E0F53C06
:108D41001250E690009CE075840FF5C8758400D23E
:108D51009500C295A3E075840FF5C8758400D2967D
:108D610000C296C29300D293D2A20000C2A2900088
:108D7100A6E0FAFBA3E06001FB9000D012EC9E900C
:108D8100008412EC688F658E6612547B900090E02F
:108D9100703212512D30CFFDC2920000000000C28E
:108DA100CFD292DB0BD29100000000008A03C29166
:108DB100DFE3DEE1C293856507856606D293D9D5E7
:108DC100D8D3802A30CFFDC2920000000000C2CF6C
:108DD100D292DB08126D5312EACF8A03DFE6DEE49A
:0C8DE100C293856507856606D293D9D839
:108DED00D8D6D290000000000000C29075840F7597
:108DFD009CFF75840074FF75840FF5C8758400D2CF
:108E0D009500C295747F75840FF5C8758400D29650
:108E1D0000C296C29300D293D2A20000C2A21250F9
:108E2D00C2125181D2B743442012D9A0900090E0D4
:108E3D00700AD290000000000000C29090008CE0FB
:108E4D006017FB9000AA12EC68D2900000000000A1
:108E5D0000C290DFF4DEF2DBEA90009EE0F567A33E
:108E6D00E0F5689000A0E0F569A3E0F56A9000A236
:108E7D00E0F56BA3E0F56C9000A4E0FDA3E0FC79B8
:108E8D00FF78FF9000A6E0FB7A00756D00756E000F
:108E9D00756FFF7570FF90008612EC6875840F7505
:108EAD009C0075C8FF759D0075D8FF758400C2B70D
:108EBD005344DF12D9A0C006C00775840FAFD8AEDA
:108ECD00C8758400C3EF956FEE957050048F6F8E4B
:108EDD0070C3EF956DEE956E40048F6D8E6EE92B20
:108EED00F9E83AF8C3E99DE89C4008C3E99DF9E823
:108EFD009CF800C3E99567E895684014C3E9956946
:108F0D00E8956A4027C3E9956BE8956C403A805423
:108F1D00E5512FF551E5523EF55250620553E5539B
:108F2D00705C0554E554705605558052E5562FF585
:108F3D0056E5573EF55750460558E55870400559CA
:108F4D00E559703A055A8036E55B2FF55BE55C3ED9
:108F5D00F55C502A055DE55D7024055EE55E701ECD
:108F6D00055F801AE5602FF560E5613EF561500EF5
:108F7D000562E56270080563E56370020564D290D1
:108F8D00000000000000C290D007D006DF3CDE3AA2
:108F9D00D2B743442012D9A075840F759CFF7584F8
:108FAD0000E53C14F53C6002A14178517914E612BC
:108FBD00DA2108D9F9E56D12DA21E56E12DA21E52B
:108FCD006F12DA21E57012DA2122C1C31255ACC23B
:108FDD002790009EE0600812CEA1D22712DABC5372
:108FED00443F12D9A05344F712D9A043440812D9D3
:108FFD00A0C21BC21A90008AE0B400028050125425
:10900D007B90008AE0B401022160B402022190B489
:10901D000302410AB40402410AB40502410AB40D27
:10902D00024151B40E024151B40F024151B4140228
:10903D0001CAB4150241CDB416026129B4170261FB
:10904D00EEB4180261EEB4190261EE02ECEC434489
:10905D004053447F12D9A0D29100000000000000BF
:10906D00C29120A1FDD29100000000000000C2912C
:10907D0020A1FD12512D12EC651254F1302702D2B0
:10908D00DE30CFFDC2CFD29100000000000000C243
:10909D0091DFEEDEEC20A1FDD2900000000000007B
:1090AD00C290D2A075840F759CFF758400E5507039
:1090BD000312ECE212EC6512EB5E02ECEC5345F799
:1090CD0012D9AAC2B65345CF12D9AA12DABC43445B
:1090DD004053447F12D9A0D291000000000000003F
:1090ED00C29120A1FDD29100000000000000C291AC
:1090FD0020A1FD12512D12EC651254F130CFFDC29D
:10910D00CFC2B612DB12D29100000000000000C2E7
:01911D0091C0
:10911E0020A1FDD2B612DB12D29100000000000099
:10912E0000C29120A1FDDFD3DED120A1FDD290009F
:10913E000000000000C290D2A075840F759CFF75D0
:10914E008400E550700312ECE212EC7212EB5E0238
:10915E00ECEC12EC65302702D2DE30980AC298E5AC
:10916E0099B41B0302ECEC30CFFDC2CF126EA312EA
:10917E00EACFDFE6DEE412ECE212EC6512EBD90286
:10918E00ECECC21C302702D2DE12553B3005030236
:10919E00ECEC301B23301A2074FE12DA2174FE120E
:1091AE00DA21E599C29812DA50F53212DA50F53317
:1091BE0012501712DAD4C21A12550930050302ECF6
:1091CE00EC753900753A00753B00126F3E301C0588
:1091DE00E53612DA21126F3E301C05E53712DA2120
:1091EE00D21CC3E53B13F53BE53A13F53AE53913CB
:1091FE00F539853936853A37D21B808D302702D224
:10920E00DE12553B30050302ECEC301B23301A20E6
:10921E0074FE12DA2174FE12DA21E599C29812DA7E
:10922E0050F53212DA50F53312501712DAD4C21A40
:10923E0012550930050302ECEC12E70012DB7FD267
:10924E001B80BE5345F712D9AAC2B65345CF12D9C9
:10925E00AA12DABCC21C90008AE0C3940AF012551E
:10926E003B30050302ECEC301B23301A2074FE1247
:10927E00DA2174FE12DA21E599C29812DA50F5322B
:10928E0012DA50F53312501712DAD4C21A125509E7
:10929E0030050302ECECC2B65345CF12D9AA12DB4D
:1092AE000912E70012DB7FD2B64345205345EF1279
:0B92BE00D9AA12DB0912E70012DB7FC7
:1092C900D21B809F5345F712D9AAC2B65345CF1274
:1092D900D9AA12DABC5344F712D9A043440812D9C7
:1092E900A012EC6530980AC298E599B41B0302EC08
:1092F900EC30CFFDC2CFC2B612DB12126EA312EA56
:10930900CFD2B612DB12126EA312EACFDFD6DED4A9
:10931900E550700312ECE212EC7212EBD902ECEC9C
:109329005345F712D9AAC2B65345CF12D9AA12DAB0
:10933900BCC21C12553B30050302ECEC301B233038
:109349001A2074FE12DA2174FE12DA21E599C29804
:1093590012DA50F53212DA50F53312501712DAD404
:10936900C21A12550930050302ECECC2B612DB121F
:10937900753900753A00753B00126F3E301C05E5E2
:109389005112DA21126F3E301C05E55212DA21C35F
:10939900E53B13F53BE53A13F53AE53913F539851C
:1093A9003951853A52D2B612DB12753900753A0035
:1093B900753B00126F3E301C05E55312DA21126F1E
:1093C9003E301C05E55412DA21C3E53B13F53BE5B4
:1093D9003A13F53AE53913F539853953853A54D2B3
:1093E9001CD21B613C5345F712D9AAC2B65345CFCB
:1093F90012D9AA12DABC90008AE0C39414F012556B
:109409003B30050302ECEC301B23301A2074FE12AA
:10941900DA2174FE12DA21E599C29812DA50F5328E
:1094290012DA50F53312501712DAD4C21A1255094A
:1094390030050302ECECC2B612E70012DB7FD2B6AC
:1094490012E70012DB7FD21B80B41255AC53443FA4
:0C94590012D9A0755D00755E009000083F
:10946500E0F54C90005EE0F54E9000A2E06003123E
:109475004D8512DABC124D6112DAC29000A0E0608F
:1094850018126FDB85366D85376E85366F853770BB
:1094950012756112DAD4300CE812547B90008AE020
:1094A500B40302801D12E7009000A0E0600612756B
:1094B5006112DA2112DB7F12550930050302ECEC4B
:1094C50080E3C21B755A00755B00755C00756D0005
:1094D500756E00756FFF7570FFB139B139301B0BB3
:1094E5009000A0E06005E55112DA21B139B13930BB
:1094F5001B05E55712DA21B139B139301B05E5589D
:1095050012DA21B139B139301B05E55912DA21B129
:1095150039B139855A57855B58855C599000A0E06B
:109525006005127561F551D21B12553B30050302DA
:10953500ECEC809012550930050302ECEC127053E7
:10954500E55A2536F55AE55B3537F55B5002055C7E
:10955500C3E536956FE5379570500685366F8537C7
:1095650070C3E536956DE537956E400685366D8594
:10957500376E221255AC53443F12D9A012547B903A
:10958500008CE0B400028007B40102800280111251
:10959500550930050302ECEC12E70012DB7F80EF82
:1095A5005345F712D9AA12DABC1255093005030240
:1095B500ECECD2B643453012D9AA12DB0912E7000A
:1095C50012DB7FC2B65345CF12D9AA12DB0912E7C7
:1095D5000012DB7F80D31255ACD21053443F12D911
:1095E500A0D29100000000000000C29120A1FD75ED
:0295F50036003E
:1095F700753700753800753900C20EC20F90008AA2
:10960700E0C3940A4014F094055004D20E8005F08C
:10961700D20ED20F5345F712D9AA9000A4E0F559FC
:10962700A3E0F55A9000A6E0F55BA3E0F55C900097
:10963700A8E0F55DA3E0F55E9000AAE0F55FA3E082
:10964700F5607408124BD875320085325175338036
:10965700853352124FE6900088E0F565601A900056
:10966700A0E0124BD812DADA90015EE0F532F5513C
:10967700A3E0F533F552801890009EE0124BD81204
:10968700DADA90015CE0F532F551A3E0F533F552F3
:1096970090008AE0B401028028B40202802380216E
:1096A700C3E5519402E55294805016C3E55194FEE8
:1096B700E552947F400B124D3F12DABC756600806D
:1096C70009756601124D9712DABC124DA99000A2D6
:1096D700E06003124D8512DABC124D7112DAC8121E
:1096E7004FE612DAD412DAEE12DAEE12DAEE12548A
:1096F7007B90008AE0B401028008B4020280030272
:1097070098BA5344F712D9A043440812D9A0755305
:109717000075540030980AC298E599B41B0302EC0F
:10972700ECE565700512EC51800312EC5B30CFFD60
:10973700C2CF85653675370012EACF300E34201256
:1097470026C2B64345205345EF12D9AA12DB12129F
:049757006FDBC0E024
:10975B00E537F4F537E536F404F536D0E07012054D
:10976B0037800EC2B65345CF12D9AA12DB12126F35
:10977B00DB12EACF8536558537567557007558007D
:10978B000553E553700205540553E5537002055418
:10979B00300E29200F0DD2B64345205345EF12D979
:1097AB00AA8008D2B643453012D9AA12DB09126F30
:1097BB00DB12EACF0553E55370020554E554B4FFB1
:1097CB000302984FE565603E90008CE06006DF0475
:1097DB00DE02800A12987F6003B40102E13490002C
:1097EB00D0E014F07006A3E0605A14F07565009099
:1097FB00015CE0F532F551A3E0F533F552124FE67B
:10980B0012DAD402971B90008CE06006DF04DE02B4
:10981B00800A117F6003B401030297349000D0E0FB
:10982B0014F07006A3E0601C14F075650190015EE6
:10983B00E0F532F551A3E0F533F552124FE612DAAB
:10984B00D402971B753200853251753380853352A4
:10985B00124FE6124CEF12DABC12A0A1D14912DA68
:10986B00BCAF53AE54EF60010E12EBD9746312DA36
:10987B002102ECEC71D36019B4021BC3E555955D65
:10988B00E556955EE557955FE5589560501E74015A
:10989B0022E565B400E5C3E5559559E556955AE5BE
:0198AB005765
:1098AC00955BE558955C4003740122740222C21C3E
:1098BC00E565700512EC51800312EC5B1255093012
:1098CC000503029BB1301C1AE56512DA21300E0338
:1098DC0012DB7F8561368562378563388564391282
:1098EC00DB7F300E21201213C2B64345205345EFC7
:1098FC0012D9AA12DB0912E96E800EC2B65345CFFB
:10990C0012D9AA12DB0912E7008536618537628508
:10991C00386385396485365585375685385785398A
:10992C0058300E1E200F0DD2B64345205345EF1272
:10993C00D9AA8008D2B643453012D9AA12DB091233
:10994C00E700D21CE5657002418490008CE0602039
:10995C00DF1EDE1CE56512DA21300E0312DB7F857B
:10996C00613685623785633885643912DB7F800BFD
:10997C00117F6003B4010401C861B19000B2E070C2
:10998C0006A3E07002413412A0A1124D0312DABCFE
:10999C00753200753380124FE690000EE0F532A35D
:1099AC00E0F533125011D14912DABC124D7112DAB2
:1099BC00BC9000B212EC68C21C12550930050302AF
:1099CC009BB1301C14740212DA2185613685623722
:1099DC0085633885643912DB7F12E7008536618533
:1099EC003762853863853964D21CDFCDDECB7402D7
:1099FC0012DA2185613685623785633885643912C0
:109A0C00DB7F12A0B0124D0312DABC753200753335
:109A1C0080124FE6753200753380125011D132121C
:109A2C00DABC124D7112DABC9000D0E014F0700860
:069A3C00A3E0700261B11D
:109A420014F0756500C00190009EE0F99000A0E05E
:109A5200B50104D00180157532008532517533800D
:109A6200853352124FE6E9124BD8D00190015CE0E7
:109A7200F532F551A3E0F533F552124FE612DAD47E
:109A820001BA90008CE06020DF1EDE1CE56512DA70
:109A920021300E0312DB7F8561368562378563389C
:109AA20085643912DB7F8009117F6003B4010201F2
:109AB200C89000B4E07006A3E07002616012A0A139
:109AC200124D0312DABC753200753380124FE690E4
:109AD2000012E0F532A3E0F533125011D14912DA47
:109AE200BC124D7112DABC9000B412EC68C21C12A6
:109AF2005509300503029BB1301C14740312DA219C
:109B020085613685623785633885643912DB7F1259
:109B1200E700853661853762853863853964D21CF2
:109B2200DFCDDECB740312DA21856136856237859B
:109B3200633885643912DB7F12A0B0124D0312DA4A
:109B4200BC753200753380124FE675320075338072
:109B5200125011D13212DABC124D7112DABC9000DD
:109B6200D0E014F07006A3E0604514F0756501C002
:109B7200019000A0E0F990009EE0B50104D00180C0
:109B820018753200853251753380853352124FE693
:109B920012DAD4E9124BD8D00190015EE0F532F529
:029BA20051A3CD
:109BA400E0F533F552124FE612DAD401BA753200F9
:109BB400853251753380853352124FE6124CEF12C1
:109BC400A0A1D14912DABC746312DA2102ECECC30D
:109BD400E5519402E5529480500EC3E55194FEE59C
:109BE40052947F4006740022740222740122125798
:109BF40022124FE6221255ACD21053443F12D9A080
:109C0400D29100000000000000C29120A1FD753631
:109C14000075370075380075390090000EE0F5675F
:109C2400A3E0F56875650075660012570D9000A4F1
:109C3400E0F559A3E0F55A9000A6E0F55BA3E0F542
:109C44005C9000A8E0F55DA3E0F55E9000AAE0F565
